:100000000EC01DC01CC01BC01AC04EC018C017C0F7
:1000100016C015C014C013C012C011C010C01124E6
:100020001FBECFE5D2E0DEBFCDBF10E0A0E6B0E05E
:1000300001C01D92A936B107E1F7D5D0A6C1E0CF26
:10004000DF92EF92FF920F931F932F933F934F9363
:100050005F93112722273327442700E8FF24EE244B
:10006000DD2450E2DD0CEE1CFF1C001F111F221FBF
:10007000331F441F161727073807490728F0161B98
:10008000270B380B490BD3945A9561F7902F8F2D7E
:100090007E2D6D2D5F914F913F912F911F910F916B
:1000A000FF90EF90DF9008951F920F920FB60F927E
:1000B00011248F939F93AF93BF938091650090918C
:1000C0006600A0916700B09168000196A11DB11D66
:1000D0008093650090936600A0936700B0936800DA
:1000E0008091610090916200A0916300B0916400E2
:1000F0000196A11DB11D8093610090936200A093B1
:100100006300B0936400BF91AF919F918F910F9066
:100110000FBE0F901F901895F894809165009091F4
:100120006600A0916700B091680022B7789430E033
:1001300040E050E0BA2FA92F982F8827282B392B81
:100140004A2B5B2BB901CA010895F8948091610094
:1001500090916200A0916300B091640022B77894FE
:1001600030E040E050E0BA2FA92F982F8827282BA5
:10017000392B4A2B5B2BB901CA010895F8941092D0
:1001800061001092620010926300109264007894F3
:100190000895F8941092650010926600109267001E
:1001A0001092680078940895F8941ABC82E083BF96
:1001B00012BE89B7826089BF1092610010926200FE
:1001C0001092630010926400109265001092660015
:1001D000109267001092680078940895BB98C39AB3
:1001E000BC9AB89A0895EF92FF920F931F93F894D8
:1001F0001ABC82E083BF12BE89B7826089BF1092A9
:1002000061001092620010926300109264001092DC
:100210006500109266001092670010926800789452
:10022000BB98C39ABC9AB89A80E197E20197F1F71C
:10023000C498EE24FF24870170E060E0B39978C091
:10024000F8948091650090916600A0916700B0914C
:10025000680022B730E040E050E0BA2FA92F982F75
:100260008827282B392B4A2B5B2B7894662309F09F
:1002700070C0F894109265001092660010926700AA
:10028000109268007894F8941092610010926200C5
:1002900010926300109264007894C09AC49A790115
:1002A0008A0170E061E0E114F1040105110509F42F
:1002B0004AC0F8948091610090916200A09163001F
:1002C000B091640022B730E040E050E0BA2FA92F8F
:1002D000982F8827282B392B4A2B5B2B7894D80111
:1002E000C701B695A79597958795281739074A07A7
:1002F0005B0710F0C498C098E216F30604071507D0
:1003000008F09CCF2E193F09400B510BBB27A52F9E
:10031000942F832FF8948093610090936200A093B0
:100320006300B09364007894C49AC09AB39B88CF5A
:10033000772311F4C49871E060E0E114F104010541
:10034000110509F0B6CFC498C098EE24FF248701A8
:1003500075CF215035434C40504018F470E061E0B7
:10036000A2CFF89410926100109262001092630084
:10037000109264007894C498C09870E061E0C498CA
:0E038000C098EE24FF24870159CFF894FFCFD8
:00000001FF
